{
  "contractName": "BettingGame",
  "abi": [
    {
      "inputs": [],
      "stateMutability": "nonpayable",
      "type": "constructor"
    },
    {
      "anonymous": false,
      "inputs": [
        {
          "indexed": true,
          "internalType": "address",
          "name": "sender",
          "type": "address"
        },
        {
          "indexed": false,
          "internalType": "uint256",
          "name": "amount",
          "type": "uint256"
        }
      ],
      "name": "Received",
      "type": "event"
    },
    {
      "anonymous": false,
      "inputs": [
        {
          "indexed": false,
          "internalType": "uint256",
          "name": "id",
          "type": "uint256"
        },
        {
          "indexed": false,
          "internalType": "uint256",
          "name": "bet",
          "type": "uint256"
        },
        {
          "indexed": false,
          "internalType": "uint256",
          "name": "randomSeed",
          "type": "uint256"
        },
        {
          "indexed": false,
          "internalType": "uint256",
          "name": "amount",
          "type": "uint256"
        },
        {
          "indexed": false,
          "internalType": "address",
          "name": "player",
          "type": "address"
        },
        {
          "indexed": false,
          "internalType": "uint256",
          "name": "winAmount",
          "type": "uint256"
        },
        {
          "indexed": false,
          "internalType": "uint256",
          "name": "randomResult",
          "type": "uint256"
        },
        {
          "indexed": false,
          "internalType": "uint256",
          "name": "time",
          "type": "uint256"
        }
      ],
      "name": "Result",
      "type": "event"
    },
    {
      "anonymous": false,
      "inputs": [
        {
          "indexed": false,
          "internalType": "address",
          "name": "admin",
          "type": "address"
        },
        {
          "indexed": false,
          "internalType": "uint256",
          "name": "amount",
          "type": "uint256"
        }
      ],
      "name": "Withdraw",
      "type": "event"
    },
    {
      "inputs": [],
      "name": "admin",
      "outputs": [
        {
          "internalType": "address payable",
          "name": "",
          "type": "address"
        }
      ],
      "stateMutability": "view",
      "type": "function"
    },
    {
      "inputs": [],
      "name": "gameId",
      "outputs": [
        {
          "internalType": "uint256",
          "name": "",
          "type": "uint256"
        }
      ],
      "stateMutability": "view",
      "type": "function"
    },
    {
      "inputs": [
        {
          "internalType": "uint256",
          "name": "",
          "type": "uint256"
        }
      ],
      "name": "games",
      "outputs": [
        {
          "internalType": "uint256",
          "name": "id",
          "type": "uint256"
        },
        {
          "internalType": "uint256",
          "name": "bet",
          "type": "uint256"
        },
        {
          "internalType": "uint256",
          "name": "seed",
          "type": "uint256"
        },
        {
          "internalType": "uint256",
          "name": "amount",
          "type": "uint256"
        },
        {
          "internalType": "address payable",
          "name": "player",
          "type": "address"
        }
      ],
      "stateMutability": "view",
      "type": "function"
    },
    {
      "inputs": [],
      "name": "lastGameId",
      "outputs": [
        {
          "internalType": "uint256",
          "name": "",
          "type": "uint256"
        }
      ],
      "stateMutability": "view",
      "type": "function"
    },
    {
      "inputs": [
        {
          "internalType": "bytes32",
          "name": "",
          "type": "bytes32"
        }
      ],
      "name": "nonces",
      "outputs": [
        {
          "internalType": "uint256",
          "name": "",
          "type": "uint256"
        }
      ],
      "stateMutability": "view",
      "type": "function"
    },
    {
      "inputs": [],
      "name": "randomResult",
      "outputs": [
        {
          "internalType": "uint256",
          "name": "",
          "type": "uint256"
        }
      ],
      "stateMutability": "view",
      "type": "function"
    },
    {
      "inputs": [
        {
          "internalType": "bytes32",
          "name": "requestId",
          "type": "bytes32"
        },
        {
          "internalType": "uint256",
          "name": "randomness",
          "type": "uint256"
        }
      ],
      "name": "rawFulfillRandomness",
      "outputs": [],
      "stateMutability": "nonpayable",
      "type": "function"
    },
    {
      "stateMutability": "payable",
      "type": "receive"
    },
    {
      "inputs": [
        {
          "internalType": "uint256",
          "name": "bet",
          "type": "uint256"
        },
        {
          "internalType": "uint256",
          "name": "seed",
          "type": "uint256"
        }
      ],
      "name": "game",
      "outputs": [
        {
          "internalType": "bool",
          "name": "",
          "type": "bool"
        }
      ],
      "stateMutability": "payable",
      "type": "function"
    },
    {
      "inputs": [
        {
          "internalType": "uint256",
          "name": "random",
          "type": "uint256"
        }
      ],
      "name": "verdict",
      "outputs": [],
      "stateMutability": "payable",
      "type": "function"
    },
    {
      "inputs": [
        {
          "internalType": "uint256",
          "name": "amount",
          "type": "uint256"
        }
      ],
      "name": "withdrawLink",
      "outputs": [],
      "stateMutability": "nonpayable",
      "type": "function"
    },
    {
      "inputs": [
        {
          "internalType": "uint256",
          "name": "amount",
          "type": "uint256"
        }
      ],
      "name": "withdrawEther",
      "outputs": [],
      "stateMutability": "payable",
      "type": "function"
    }
  ],
  "bytecode": "0x60c060405234801561001057600080fd5b5073b3dccb4cf7a26f6cf6b120cf5a73875b7bbc655b7301be23585060835e02b77ef475b0cc51aa1e07098173ffffffffffffffffffffffffffffffffffffffff1660a08173ffffffffffffffffffffffffffffffffffffffff1660601b815250508073ffffffffffffffffffffffffffffffffffffffff1660808173ffffffffffffffffffffffffffffffffffffffff1660601b81525050505067016345785d8a000060018190555033600560006101000a81548173ffffffffffffffffffffffffffffffffffffffff021916908373ffffffffffffffffffffffffffffffffffffffff16021790555060805160601c60a05160601c6113b761013360003980610a4c528061102f5250806106dc5280610e8c5280610ff352506113b76000f3fe6080604052600436106100a05760003560e01c806383f818b41161006457806383f818b41461023a57806394985ddd146102885780639e317f12146102cd578063d3dc1fdf1461031c578063d7c81b551461034a578063f851a44014610375576100f5565b8063117a5b90146100fa5780633bed33ce1461017b5780633ee9d648146101a957806342619f66146101d45780637a8042bd146101ff576100f5565b366100f5573373ffffffffffffffffffffffffffffffffffffffff167f88a5966d370b9919b20f3e2c13ff65706f196a4e32cc2c12bf57088f88525874346040518082815260200191505060405180910390a2005b600080fd5b34801561010657600080fd5b506101336004803603602081101561011d57600080fd5b81019080803590602001909291905050506103b6565b604051808681526020018581526020018481526020018381526020018273ffffffffffffffffffffffffffffffffffffffff1681526020019550505050505060405180910390f35b6101a76004803603602081101561019157600080fd5b810190808035906020019092919050505061040c565b005b3480156101b557600080fd5b506101be61060b565b6040518082815260200191505060405180910390f35b3480156101e057600080fd5b506101e9610611565b6040518082815260200191505060405180910390f35b34801561020b57600080fd5b506102386004803603602081101561022257600080fd5b8101908080359060200190929190505050610617565b005b6102706004803603604081101561025057600080fd5b81019080803590602001909291908035906020019092919050505061081b565b60405180821515815260200191505060405180910390f35b34801561029457600080fd5b506102cb600480360360408110156102ab57600080fd5b810190808035906020019092919080359060200190929190505050610a4a565b005b3480156102d957600080fd5b50610306600480360360208110156102f057600080fd5b8101908080359060200190929190505050610b19565b6040518082815260200191505060405180910390f35b6103486004803603602081101561033257600080fd5b8101908080359060200190929190505050610b31565b005b34801561035657600080fd5b5061035f610e59565b6040518082815260200191505060405180910390f35b34801561038157600080fd5b5061038a610e5f565b604051808273ffffffffffffffffffffffffffffffffffffffff16815260200191505060405180910390f35b60066020528060005260406000206000915090508060000154908060010154908060020154908060030154908060040160009054906101000a900473ffffffffffffffffffffffffffffffffffffffff16905085565b600560009054906101000a900473ffffffffffffffffffffffffffffffffffffffff1673ffffffffffffffffffffffffffffffffffffffff163373ffffffffffffffffffffffffffffffffffffffff16146104cf576040517f08c379a00000000000000000000000000000000000000000000000000000000081526004018080602001828103825260178152602001807f63616c6c6572206973206e6f74207468652061646d696e00000000000000000081525060200191505060405180910390fd5b80471015610528576040517f08c379a000000000000000000000000000000000000000000000000000000000815260040180806020018281038252602781526020018061130a6027913960400191505060405180910390fd5b600560009054906101000a900473ffffffffffffffffffffffffffffffffffffffff1673ffffffffffffffffffffffffffffffffffffffff166108fc829081150290604051600060405180830381858888f19350505050158015610590573d6000803e3d6000fd5b507f884edad9ce6fa2440d8a54cc123490eb96d2768479d49ff9c7366125a9424364600560009054906101000a900473ffffffffffffffffffffffffffffffffffffffff1682604051808373ffffffffffffffffffffffffffffffffffffffff1681526020018281526020019250505060405180910390a150565b60045481565b60025481565b600560009054906101000a900473ffffffffffffffffffffffffffffffffffffffff1673ffffffffffffffffffffffffffffffffffffffff163373ffffffffffffffffffffffffffffffffffffffff16146106da576040517f08c379a00000000000000000000000000000000000000000000000000000000081526004018080602001828103825260178152602001807f63616c6c6572206973206e6f74207468652061646d696e00000000000000000081525060200191505060405180910390fd5b7f000000000000000000000000000000000000000000000000000000000000000073ffffffffffffffffffffffffffffffffffffffff1663a9059cbb33836040518363ffffffff1660e01b8152600401808373ffffffffffffffffffffffffffffffffffffffff16815260200182815260200192505050602060405180830381600087803b15801561076b57600080fd5b505af115801561077f573d6000803e3d6000fd5b505050506040513d602081101561079557600080fd5b8101908080519060200190929190505050610818576040517f08c379a00000000000000000000000000000000000000000000000000000000081526004018080602001828103825260128152602001807f556e61626c6520746f207472616e73666572000000000000000000000000000081525060200191505060405180910390fd5b50565b60006001831115610894576040517f08c379a000000000000000000000000000000000000000000000000000000000815260040180806020018281038252601a8152602001807f4572726f722c20616363657074206f6e6c79203020616e64203100000000000081525060200191505060405180910390fd5b60003414156108ee576040517f08c379a000000000000000000000000000000000000000000000000000000000815260040180806020018281038252602681526020018061135c6026913960400191505060405180910390fd5b34471015610964576040517f08c379a000000000000000000000000000000000000000000000000000000000815260040180806020018281038252601f8152602001807f4572726f7220696e737566666963656e74207661756c742062616c616e63650081525060200191505060405180910390fd5b6040518060a0016040528060035481526020018481526020018381526020013481526020013373ffffffffffffffffffffffffffffffffffffffff168152506006600060035481526020019081526020016000206000820151816000015560208201518160010155604082015181600201556060820151816003015560808201518160040160006101000a81548173ffffffffffffffffffffffffffffffffffffffff021916908373ffffffffffffffffffffffffffffffffffffffff160217905550905050600160035401600381905550610a3f82610e85565b506001905092915050565b7f000000000000000000000000000000000000000000000000000000000000000073ffffffffffffffffffffffffffffffffffffffff163373ffffffffffffffffffffffffffffffffffffffff1614610b0b576040517f08c379a000000000000000000000000000000000000000000000000000000000815260040180806020018281038252601f8152602001807f4f6e6c7920565246436f6f7264696e61746f722063616e2066756c66696c6c0081525060200191505060405180910390fd5b610b158282610fd9565b5050565b60006020528060005260406000206000915090505481565b73b3dccb4cf7a26f6cf6b120cf5a73875b7bbc655b73ffffffffffffffffffffffffffffffffffffffff163373ffffffffffffffffffffffffffffffffffffffff1614610be6576040517f08c379a00000000000000000000000000000000000000000000000000000000081526004018080602001828103825260208152602001807f6f6e6c7920564652432063616e2063616c6c20746869732066756e6374696f6e81525060200191505060405180910390fd5b600060045490505b600354811015610e4c5760007f80000000000000000000000000000000000000000000000000000000000000008310158015610c40575060016006600084815260200190815260200160002060010154145b80610c8c57507f800000000000000000000000000000000000000000000000000000000000000083108015610c8b575060006006600084815260200190815260200160002060010154145b5b15610d2b57600260066000848152602001908152602001600020600301540290506006600083815260200190815260200160002060040160009054906101000a900473ffffffffffffffffffffffffffffffffffffffff1673ffffffffffffffffffffffffffffffffffffffff166108fc829081150290604051600060405180830381858888f19350505050158015610d29573d6000803e3d6000fd5b505b7f42454dd863e57d7fc7c2c8c6a3d1385748e0c2c5224b37d27cad5fb088ddf47b60066000848152602001908152602001600020600001546006600085815260200190815260200160002060010154600660008681526020019081526020016000206002015460066000878152602001908152602001600020600301546006600088815260200190815260200160002060040160009054906101000a900473ffffffffffffffffffffffffffffffffffffffff16868942604051808981526020018881526020018781526020018681526020018573ffffffffffffffffffffffffffffffffffffffff1681526020018481526020018381526020018281526020019850505050505050505060405180910390a1508080600101915050610bee565b5060035460048190555050565b60035481565b600560009054906101000a900473ffffffffffffffffffffffffffffffffffffffff1681565b60006001547f000000000000000000000000000000000000000000000000000000000000000073ffffffffffffffffffffffffffffffffffffffff166370a08231306040518263ffffffff1660e01b8152600401808273ffffffffffffffffffffffffffffffffffffffff16815260200191505060206040518083038186803b158015610f1157600080fd5b505afa158015610f25573d6000803e3d6000fd5b505050506040513d6020811015610f3b57600080fd5b810190808051906020019092919050505011610fa2576040517f08c379a000000000000000000000000000000000000000000000000000000000815260040180806020018281038252602b815260200180611331602b913960400191505060405180910390fd5b610fd27f2ed0feb3e7fd2022120aa84fab1945545a9f2ffc9076fd6156fa96eaff4c131160001b60015484610fef565b9050919050565b80600281905550610feb600254610b31565b5050565b60007f000000000000000000000000000000000000000000000000000000000000000073ffffffffffffffffffffffffffffffffffffffff16634000aea07f000000000000000000000000000000000000000000000000000000000000000085878660405160200180838152602001828152602001925050506040516020818303038152906040526040518463ffffffff1660e01b8152600401808473ffffffffffffffffffffffffffffffffffffffff16815260200183815260200180602001828103825283818151815260200191508051906020019080838360005b838110156110e85780820151818401526020810190506110cd565b50505050905090810190601f1680156111155780820380516001836020036101000a031916815260200191505b50945050505050602060405180830381600087803b15801561113657600080fd5b505af115801561114a573d6000803e3d6000fd5b505050506040513d602081101561116057600080fd5b81019080805190602001909291905050505060006111928584306000808a8152602001908152602001600020546111e4565b90506111ba60016000808881526020019081526020016000205461124890919063ffffffff16565b600080878152602001908152602001600020819055506111da85826112d0565b9150509392505050565b600084848484604051602001808581526020018481526020018373ffffffffffffffffffffffffffffffffffffffff1681526020018281526020019450505050506040516020818303038152906040528051906020012060001c9050949350505050565b6000808284019050838110156112c6576040517f08c379a000000000000000000000000000000000000000000000000000000000815260040180806020018281038252601b8152602001807f536166654d6174683a206164646974696f6e206f766572666c6f77000000000081525060200191505060405180910390fd5b8091505092915050565b6000828260405160200180838152602001828152602001925050506040516020818303038152906040528051906020012090509291505056fe4572726f722c20636f6e74726163742068617320696e737566666963656e742062616c616e63654e6f7420656e6f756768204c494e4b202d2066696c6c20636f6e74726163742077697468206661756365744572726f722c206d73672e76616c7565206d7573742062652068696768657220746861742030a2646970667358221220407fb16bb0da07994b6e528a8240496bbbbe15e4dd2dd89445f0f97416f4781864736f6c634300060c0033",
  "immutableReferences": {
    "595": [
      {
        "length": 32,
        "start": 1756
      },
      {
        "length": 32,
        "start": 3724
      },
      {
        "length": 32,
        "start": 4083
      }
    ],
    "597": [
      {
        "length": 32,
        "start": 2636
      },
      {
        "length": 32,
        "start": 4143
      }
    ]
  },
  "source": "/** Contract created based on: https://docs.chain.link/docs/get-a-random-number\r\n *  Contract created only for educational purposes, by: github.com/dappuniversity\r\n *  You will need testnet ETH and LINK.\r\n *     - Rinkeby ETH faucet: https://faucet.rinkeby.io/\r\n *     - Rinkeby LINK faucet: https://rinkeby.chain.link/\r\n */\r\n\r\npragma solidity ^0.6.7;\r\n\r\nimport \"@chainlink/contracts/src/v0.6/VRFConsumerBase.sol\";\r\n\r\ncontract BettingGame is VRFConsumerBase {\r\n    uint256 internal fee;\r\n    uint256 public randomResult;\r\n\r\n    //Network: Rinkeby\r\n    address constant VFRC_address = 0xb3dCcb4Cf7a26f6cf6B120Cf5A73875B7BBc655B; // VRF Coordinator\r\n    address constant LINK_address = 0x01BE23585060835E02B77ef475b0Cc51aA1e0709; // LINK token\r\n\r\n    //declaring 50% chance, (0.5*uint256)~\r\n    uint256 constant half =\r\n        57896044618658097711785492504343953926634992332820282019728792003956564819968;\r\n    bytes32 internal constant keyHash =\r\n        0x2ed0feb3e7fd2022120aa84fab1945545a9f2ffc9076fd6156fa96eaff4c1311;\r\n\r\n    uint256 public gameId;\r\n    uint256 public lastGameId;\r\n    address payable public admin;\r\n    mapping(uint256 => Game) public games;\r\n\r\n    struct Game {\r\n        uint256 id;\r\n        uint256 bet;\r\n        uint256 seed;\r\n        uint256 amount;\r\n        address payable player;\r\n    }\r\n\r\n    modifier onlyAdmin() {\r\n        require(msg.sender == admin, \"caller is not the admin\");\r\n        _;\r\n    }\r\n\r\n    modifier onlyVFRC() {\r\n        require(msg.sender == VFRC_address, \"only VFRC can call this function\");\r\n        _;\r\n    }\r\n\r\n    event Withdraw(address admin, uint256 amount);\r\n    event Received(address indexed sender, uint256 amount);\r\n    event Result(\r\n        uint256 id,\r\n        uint256 bet,\r\n        uint256 randomSeed,\r\n        uint256 amount,\r\n        address player,\r\n        uint256 winAmount,\r\n        uint256 randomResult,\r\n        uint256 time\r\n    );\r\n\r\n    /**\r\n     * Constructor inherits VRFConsumerBase\r\n     */\r\n    constructor() public VRFConsumerBase(VFRC_address, LINK_address) {\r\n        fee = 0.1 * 10**18; // 0.1 LINK\r\n        admin = msg.sender;\r\n    }\r\n\r\n    /* Allows this contract to receive payments */\r\n    receive() external payable {\r\n        emit Received(msg.sender, msg.value);\r\n    }\r\n\r\n    /**\r\n     * Taking bets function\r\n     * By winning, user 2x his betAmount.\r\n     * Chances to win and lose are the same.\r\n     */\r\n    function game(uint256 bet, uint256 seed) public payable returns (bool) {\r\n        //bet=0 is low, refers to 1-3  dice values\r\n        //bet=1 is high, refers to 4-6 dice values\r\n        require(bet <= 1, \"Error, accept only 0 and 1\");\r\n        //min. betAmount = 1 wei\r\n        require(msg.value != 0, \"Error, msg.value must be higher that 0\");\r\n        //vault balance must be at least equal to msg.value\r\n        require(\r\n            address(this).balance >= msg.value,\r\n            \"Error insufficent vault balance\"\r\n        );\r\n\r\n        //each bet has unique id\r\n        games[gameId] = Game(gameId, bet, seed, msg.value, msg.sender);\r\n\r\n        //increase gameId for the next bet\r\n        gameId = gameId + 1;\r\n\r\n        //seed is auto-generated by DApp\r\n        getRandomNumber(seed);\r\n\r\n        return true;\r\n    }\r\n\r\n    /**\r\n     * Request for randomness\r\n     */\r\n    function getRandomNumber(uint256 userProvidedSeed)\r\n        internal\r\n        returns (bytes32 requestId)\r\n    {\r\n        require(\r\n            LINK.balanceOf(address(this)) > fee,\r\n            \"Not enough LINK - fill contract with faucet\"\r\n        );\r\n        return requestRandomness(keyHash, fee, userProvidedSeed);\r\n    }\r\n\r\n    /**\r\n     * Callback function used by VRF Coordinator\r\n     */\r\n    function fulfillRandomness(bytes32 requestId, uint256 randomness)\r\n        internal\r\n        override\r\n    {\r\n        randomResult = randomness;\r\n\r\n        //send final random value to the verdict();\r\n        verdict(randomResult);\r\n    }\r\n\r\n    /**\r\n     * Send reward to the winers\r\n     */\r\n    function verdict(uint256 random) public payable onlyVFRC {\r\n        //take bets from latest betting round one by one\r\n        for (uint256 i = lastGameId; i < gameId; i++) {\r\n            uint256 winAmount = 0;\r\n            //if user won, then he receives 2x of his betting amount\r\n            if (\r\n                (random >= half && games[i].bet == 1) ||\r\n                (random < half && games[i].bet == 0)\r\n            ) {\r\n                winAmount = games[i].amount * 2;\r\n                games[i].player.transfer(winAmount);\r\n            }\r\n            emit Result(\r\n                games[i].id,\r\n                games[i].bet,\r\n                games[i].seed,\r\n                games[i].amount,\r\n                games[i].player,\r\n                winAmount,\r\n                random,\r\n                block.timestamp\r\n            );\r\n        }\r\n        //save current gameId to lastGameId for the next betting round\r\n        lastGameId = gameId;\r\n    }\r\n\r\n    /**\r\n     * Withdraw LINK from this contract (admin option)\r\n     */\r\n    function withdrawLink(uint256 amount) external onlyAdmin {\r\n        require(LINK.transfer(msg.sender, amount), \"Unable to transfer\");\r\n    }\r\n\r\n    /**\r\n     * Withdraw Ether from this contract (admin option)\r\n     */\r\n    function withdrawEther(uint256 amount) external payable onlyAdmin {\r\n        require(\r\n            address(this).balance >= amount,\r\n            \"Error, contract has insufficent balance\"\r\n        );\r\n        admin.transfer(amount);\r\n\r\n        emit Withdraw(admin, amount);\r\n    }\r\n}\r\n",
  "sourcePath": "/Users/andreasbigger/Projects/dapp_university/chainlink_betting_game/src/contracts/BettingGame.sol",
  "compiler": {
    "name": "solc",
    "version": "0.6.12+commit.27d51765.Emscripten.clang"
  },
  "schemaVersion": "3.3.3",
  "updatedAt": "2021-01-07T19:57:46.465Z",
  "devdoc": {
    "kind": "dev",
    "methods": {},
    "version": 1
  },
  "userdoc": {
    "kind": "user",
    "methods": {
      "constructor": "Constructor inherits VRFConsumerBase",
      "game(uint256,uint256)": {
        "notice": "Taking bets function By winning, user 2x his betAmount. Chances to win and lose are the same."
      },
      "verdict(uint256)": {
        "notice": "Send reward to the winers"
      },
      "withdrawEther(uint256)": {
        "notice": "Withdraw Ether from this contract (admin option)"
      },
      "withdrawLink(uint256)": {
        "notice": "Withdraw LINK from this contract (admin option)"
      }
    },
    "version": 1
  }
}